01RETORNO03CREDITO C/C    034280705000280038  46489INSTITUTO DATA RIO DE ADM237BRADESCO       2911201201600BPI291120120N    0                                                                     000001
1                                                             034280738000350532  ADAZIRA SILVA DE AZEVEDO              000000000000008110000000000000                                            000002
1                                                             034280738000291102  ADRIANA CHAVES DO ROSÁRIO FERREIRA    000000000000026244000000000000                                            000003
1                                                             034280738000350540  ADRIANA DE VASCONCELLOS CABRAL        000000000000009354000000000000                                            000004
1                                                             034280738000350559  ADRIANA VIDAL DE OLIVEIRA             000000000000008110000000000000                                            000005
1                                                             034280738000291110  ADRIANO DIAS MACHADO                  000000000000106244000000000000                                            000006
1                                                             034280738000291137  ALESSANDRA DA CONCEIÇÃO DAMASCENNO    000000000000026244000000000000                                            000007
1                                                             034280738000291145  ALEXANDRE FRANCISCO DE SOUZA          000000000000026244000000000000                                            000008
1                                                             034280738000350567  ALEXANDRE LOPES MACHADO               000000000000008110000000000000                                            000009
1                                                             034280738000291153  ALEXANDRE TELLES DA PAIXAO LISBOA     000000000000106244000000000000                                            000010
1                                                             034280738000291161  ALINE DOS SANTOS SILVA                000000000000026244000000000000                                            000011
1                                                             034280738000292346  ALVARO ROGER PINHEIRO DE FARIA        000000000000009820000000000000                                            000012
1                                                             034280738000292516  AMANDA MARCONDES DE SOUZA             000000000000071244000000000000                                            000013
1                                                             034280738000350575  AMANDA VIDIGAL FURTADO                000000000000070000000000000000                                            000014
1                                                             034280738000292362  ANA PAULA HINNAH                      000000000000036244000000000000                                            000015
1                                                             034280738000291196  ANDERSON SOARES CAETANO               000000000000106244000000000000                                            000016
1                                                             034280738000291218  ANDRÉ DOS SANTOS                      000000000000026244000000000000                                            000017
1                                                             034280738000291226  ANDRE LINS DE ALMEIDA                 000000000000033239900000000000                                            000018
1                                                             034280738000291234  ANDREA CRISTINA ROCHA                 000000000000026244000000000000                                            000019
1                                                             034280738000350583  ANDREZA CORDEIRO DA SILVA MOREIRA     000000000000009354000000000000                                            000020
1                                                             034280738000350591  ANGELICA BARBOSA PEREIRA              000000000000025000000000000000                                            000021
1                                                             034280738000291242  ANNA CHRISTINA RODRIGUES DANTER       000000000000026244000000000000                                            000022
1                                                             034280738000291250  BIANCA DAMASCENO CAVALCANTE           000000000000020244000000000000                                            000023
1                                                             034280738000291269  BIANCA MARIA DIAS DA SILVA            000000000000026244000000000000                                            000024
1                                                             034280738000291285  BRUNA DE MORAES FRADIQUE MORO         000000000000026244000000000000                                            000025
1                                                             034280738000285838  BRUNO JOSE DA COSTA KOPKE RIBEIRO     000000000000036244000000000000                                            000026
1                                                             034280738000285781  CANDIDA CAROLINE DE ALVARENGA WEBER   000000000000008110000000000000                                            000027
1                                                             034280738000291293  CARLOS EDUARDO SILVA CORREIA          000000000000071244000000000000                                            000028
1                                                             034280738000285765  CARLOS GUSTAVO DA SILVA PASSOS        000000000000009354000000000000                                            000029
1                                                             034280738000292370  CARLOS JOSE MONTEIRO DE ARAUJO        000000000000009820000000000000                                            000030
1                                                             034280738000291307  CAROLINE BENTO ANGELO                 000000000000026244000000000000                                            000031
1                                                             034280738000291315  CENIRA CORREIA GARBETO                000000000000026244000000000000                                            000032
1                                                             034280738000350613  CLAUDIA DE SOUZA EUDES                000000000000008110000000000000                                            000033
1                                                             034280738000291331  CLAUDIA VALERIA GOMES DE OLIVEIRA B   000000000000071244000000000000                                            000034
1                                                             034280738000291366  CRISTIANE GOMES OLIVEIRA              000000000000036244000000000000                                            000035
1                                                             034280738000350621  CRISTIANE MERELLES ROSA               000000000000018571400000000000                                            000036
1                                                             034280738000291374  CRISTIANO GAMA SILVA                  000000000000026244000000000000                                            000037
1                                                             034280738000291382  DAIANE DE SANTANA PINTO               000000000000026244000000000000                                            000038
1                                                             034280738000350648  DAISIANE DA SILVA MARINS              000000000000008110000000000000                                            000039
1                                                             034280738000291390  DAIZY VIEIRA SANTANA                  000000000000106244000000000000                                            000040
1                                                             034280738000350656  DENISE LOUREIRO DA SILVA              000000000000008110000000000000                                            000041
1                                                             034280738000291439  DIEGO GONÇALVES DA SILVA FERNANDES    000000000000106244000000000000                                            000042
1                                                             034280738000291447  DIEGO SANTA ROSA SANTOS               000000000000106244000000000000                                            000043
1                                                             034280738000350664  EDSON DE ALMEIDA BALIEIRO JUNIOR      000000000000106244000000000000                                            000044
1                                                             034280738000292613  EDUARDO NEVES DE OLIVEIRA             000000000000036244000000000000                                            000045
1                                                             034280738000291455  EDUARDO SANTOS DO CANTO               000000000000025372200000000000                                            000046
1                                                             034280738000350672  ELAINE SANTANA SANTOS                 000000000000008110000000000000                                            000047
1                                                             034280738000291463  ELAYNE VIANA MARQUES                  000000000000026244000000000000                                            000048
1                                                             034280738000350680  ELIZABETH CORREA DA SILVA MARINS      000000000000008110000000000000                                            000049
1                                                             034280738000291471  ERICA SOUSA CARVALHO                  000000000000026061200000000000                                            000050
1                                                             034280738000291501  FABIANA LOPES JOAQUIM                 000000000000026244000000000000                                            000051
1                                                             034280738000292389  FABIANA MEDEIROS BARBOSA SILVA        000000000000009820000000000000                                            000052
1                                                             034280738000350699  FABIO DE MORAES DA SILVA              000000000000071244000000000000                                            000053
1                                                             034280738000291528  FABRICIO DE SA QUINTANILHA            000000000000071244000000000000                                            000054
1                                                             034280738000350702  FELIPE DE MIRANDA CAMPOS              000000000000009354000000000000                                            000055
1                                                             034280738000291536  FERNANDA KENGEN VASCONCELOS LEON DE   000000000000026244000000000000                                            000056
1                                                             034280738000291544  FERNANDA SEICA SILVA                  000000000000020244000000000000                                            000057
1                                                             034280738000291552  FERNANDA SILVA DE ALMEIDA             000000000000020244000000000000                                            000058
1                                                             034280738000291560  FLAVIO LUCIO TONON                    000000000000026244000000000000                                            000059
1                                                             034280738000291579  FRANCINE COSTA GOMES DA SILVA         000000000000026244000000000000                                            000060
1                                                             034280738000291587  GABRIEL BARBOSA SACCARDO              000000000000106244000000000000                                            000061
1                                                             034280738000350710  GRACILENE ARAUJO TRANQUILINO          000000000000008110000000000000                                            000062
1                                                             034280738000291595  GUILHERME TADEU GOMES DE MENDONÇA     000000000000026244000000000000                                            000063
1                                                             034280738000291609  HELDER DA SILVA BARROSO               000000000000106244000000000000                                            000064
1                                                             034280738000291617  HELEN SUZART DE SIQUEIRA              000000000000035000000000000000                                            000065
1                                                             034280738000292621  IGOR LEAO RODRIGUES                   000000000000071244000000000000                                            000066
1                                                             034280738000291633  IVAN SILVA DA CONCEIÇÃO DE SOUZA      000000000000026244000000000000                                            000067
1                                                             034280738000292230  IVANA TERESINHA HASSTENTEUFEL         000000000000035000000000000000                                            000068
1                                                             034280738000292400  IVONEI ALVES NUNES                    000000000000009820000000000000                                            000069
1                                                             034280738000291641  JACQUELINE PIRES FLOR                 000000000000026244000000000000                                            000070
1                                                             034280738000292648  JAILMA JOSIE BRAGANCA GOMES           000000000000036244000000000000                                            000071
1                                                             034280738000291668  JANE RAMOS HIGINO                     000000000000026244000000000000                                            000072
1                                                             034280738000291676  JAQUELINE BARRETO VELASCO FROTA RAM   000000000000026244000000000000                                            000073
1                                                             034280738000291684  JOAO GIFFONI DA SILVEIRA NETO         000000000000035000000000000000                                            000074
1                                                             034280738000291714  JOCELLY DOS SANTOS OLIVEIRA           000000000000026244000000000000                                            000075
1                                                             034280738000291722  JONATH DE OLIVEIRA TIGRE              000000000000106244000000000000                                            000076
1                                                             034280738000292419  JOSE RENATO DA MOTA                   000000000000009820000000000000                                            000077
1                                                             034280738000350737  JUCARA DE MORAES SILVA                000000000000008110000000000000                                            000078
1                                                             034280738000291757  KATIA CRISTINA SALDANHA NUNES ROCHA   000000000000026244000000000000                                            000079
1                                                             034280738000350745  KELLY ALVES DE OLIVEIRA               000000000000008110000000000000                                            000080
1                                                             034280738000292427  KELLY FERREIRA LIMA                   000000000000026244000000000000                                            000081
1                                                             034280738000291765  KELLY RACHID GUIMARAES EL WARRAK      000000000000036244000000000000                                            000082
1                                                             034280738000292435  LADY DYANA CARDOSO FIGUEIREDO         000000000000071244000000000000                                            000083
1                                                             034280738000291773  LAIS DOMINGUEZ RODRIGUES DA SILVA C   000000000000026244000000000000                                            000084
1                                                             034280738000292451  LEANDRO DE OLIVEIRA CARVALHO          000000000000009820000000000000                                            000085
1                                                             034280738000285820  LEANDRO ELIAS MACHADO                 000000000000008110000000000000                                            000086
1                                                             000580738000535613  LIGIA RITA DE JESUS DO NASCIMENTO M   000000000000070000000000000000                                            000087
1                                                             034280738000291781  LUANA APARECIDA DA SILVA CORREIA      000000000000021244000000000000                                            000088
1                                                             034280738000291803  LUCIA BARCELOS DA CUNHA               000000000000026244000000000000                                            000089
1                                                             034280738000291811  LUCIANA ALVES GONZAGA                 000000000000026244000000000000                                            000090
1                                                             034280738000291838  LUCIANE FERREIRA FERNANDES            000000000000026244000000000000                                            000091
1                                                             034280738000350761  LUCIENE FRANCISCO DE SALLES           000000000000008110000000000000                                            000092
1                                                             034280738000291846  LUCILENE DOMINICE VILARDO             000000000000020244000000000000                                            000093
1                                                             034280738000291854  LUCIMAR GONÇALVES CUNHA               000000000000020244000000000000                                            000094
1                                                             034280738000350788  MARCELO ARAPUA NEVES PEREIRA          000000000000008110000000000000                                            000095
1                                                             034280738000292478  MARCIA DE SOUZA RIBEIRO               000000000000026244000000000000                                            000096
1                                                             034280738000291862  MARCIA FELIX CORREA DE NIGRO          000000000000036244000000000000                                            000097
1                                                             034280738000291870  MARCIO MONTEIRO MARTINS               000000000000026244000000000000                                            000098
1                                                             034280738000350796  MARIA AUGUSTA ROSA DE CASTRO          000000000000036244000000000000                                            000099
1                                                             034280738000350818  MARIA INES DE ALMEIDA FERREIRA        000000000000008110000000000000                                            000100
1                                                             034280738000350826  MARILÚCIA DIAS DE OLIVEIRA            000000000000008110000000000000                                            000101
1                                                             034280738000291900  MARISA PAULA VIEIRA DA SILVA          000000000000026244000000000000                                            000102
1                                                             034280738000350834  MAYARA DE SOUZA CARVALHO              000000000000008110000000000000                                            000103
1                                                             034280738000291919  MAYARA NEVES MUZZI                    000000000000026244000000000000                                            000104
1                                                             034280738000291927  MAYCON FERREIRA RIBEIRO DE MATOS      000000000000026244000000000000                                            000105
1                                                             034280738000291935  MELISSA BARBOSA FONSECA               000000000000026244000000000000                                            000106
1                                                             034280738000350850  MICHELE TATIANE FERRAZ DE SOUZA       000000000000008110000000000000                                            000107
1                                                             034280738000291943  MICHELLE OLIVEIRA MENDES              000000000000034584000000000000                                            000108
1                                                             034280738000285757  MILANA DE PAULO CARDOSO               000000000000008110000000000000                                            000109
1                                                             034280738000291951  NECI DAIANI DE ANDRADE SANT ANA       000000000000026244000000000000                                            000110
1                                                             034280738000291978  PAULO CESAR RIBEIRO DA SILVA          000000000000121244000000000000                                            000111
1                                                             034280738000291986  PRISCILA CARINE MORAES SEPULVEDA      000000000000026244000000000000                                            000112
1                                                             034280738000350868  PRISCILA DA SILVA GOMES               000000000000008110000000000000 S                                          000113
1                                                             034280738000350877  RAPHAEL VIDAL SILVA DE SOUZA          000000000000008110000000000000                                            000114
1                                                             034280738000286001  RENATA BAZETH FEISTEL                 000000000000008110000000000000                                            000115
1                                                             034280738000292001  RENATA SISNANDES DE MOURA             000000000000020244000000000000                                            000116
1                                                             034280738000350885  ROBERTO TEIXEIRA DE OLIVEIRA          000000000000009354000000000000                                            000117
1                                                             034280738000292494  ROSIRENE BISPO DE MOURA SILVA         000000000000009820000000000000                                            000118
1                                                             034280738000285773  SHIRLEI LEAL DE ARAUJO                000000000000008110000000000000                                            000119
1                                                             034280738000292028  SIDNEI OLIVEIRA LEMES                 000000000000026244000000000000                                            000120
1                                                             03428073800002857P  SIMONE SILVA MOREIRA                  000000000000008110000000000000 S                                          000121
1                                                             034280738000292044  TATIANA DOS SANTOS MODESTO            000000000000026244000000000000                                            000122
1                                                             034280738000292052  THAIENE GONÇALVES DE SOUZA            000000000000026244000000000000                                            000123
1                                                             034280738000285889  THAIS DE SOUZA BATISTA                000000000000009354000000000000                                            000124
1                                                             034280738000292060  THAIS DE SOUZA SANTOS                 000000000000026244000000000000                                            000125
1                                                             034280738000350907  THIAGO NUNES MACHADO                  000000000000008110000000000000                                            000126
1                                                             034280738000292079  TIAGO ALAN FERRAZ DE SOUZA            000000000000026244000000000000                                            000127
1                                                             034280738000292087  TULIO DARCIO DE FREITAS               000000000000106244000000000000                                            000128
1                                                             034280738000292095  VERA LUCIA DA SILVA DECLIE            000000000000046244000000000000                                            000129
1                                                             034280738000292109  VICTOR SPINELLI BALIEIRO              000000000000106244000000000000                                            000130
1                                                             034280738000292125  VINICIUS VIEIRA DE MENDONÇA E SILVA   000000000000106244000000000000                                            000131
1                                                             034280738000292133  VIVIANE TEIXEIRA DE SOUZA             000000000000026244000000000000                                            000132
1                                                             034280738000292168  WASHINGTON ROSA DA SILVA FRANÇA       000000000000106244000000000000                                            000133
90000044845607                                                                                                                                                                                    000134
