AL2009  011201220000110755415600016300000000000000000000000000000000000Rua Dom Walmor  383 SALAS 9 E 10        2621519RJ002126630465000000000100064                                                  
B10755415600016300002222621519     0000000000000000000000000000000000000000Rua Dom Walmor  383 SALAS 9 E 10        CENTRO              RJ0046029430800002126351811luizmartins@institutodatario.com.br                                          
C107554156000163000030          20110198309    00700000442311201225  ADRIANA VAZ DE OLIVEIRA E SILVA         63559   158        822251252RJ20621238368522010050                                                                                 
C107554156000163000041272305760922805197609    00350000440111201225  ADRIANA VIANA CHAVES                    74781   107        922251252RJ20692901272627283160                                                                                 
C107554156000163000051148554603020912199207    00081100440211201225  AGATHA CHRISTIE MACHADO DOS SANTOS      91896   172        924110052RJ21533278679426320150                                                                                 
C107554156000163000061287879656122007197707    00081100440211201225  ALESSANDRA BARROS DA SILVA              53296   108        924110052RJ20750317973226310100                                                                                 
C107554156000163000071209830500311208196007    00081100440111201225  ALEXANDRE MAIA BARBOSA                  49745   016        924110052RJ26451965170026385050                                                                                 
C107554156000163000081902040871520712198007    00200000440111201225  ALINE VIEIRA DE SOUSA                   43197   124        924110102RJ20924435470526210230                                                                                 
C107554156000163000090          22309197607    00081100442211201225  ANA DO ROSARIO DA SILVA                 96133   128        924110052RJ20870817272226310460                                                                                 
C107554156000163000101703794181420905196309    00350000440511201225  ANA MARIA OLIVEIRA BRUNO                999999  90000       922251252RJ27791656574926255230                                                                                 
C107554156000163000111280330062320903198309    00098200440711201225  ANA PAULA BORGES ALMEIDA                06251   108        923241152MG20568262670226383230                                                                                 
C107554156000163000121297681217022403198309    01050000442411201225  ANA PAULA FERNANDES RIBEIRO             072901  0404       922251252SP23085072381720271290                                                                                 
C107554156000163000131904524664611208198509    01050000440111201225  ANDRE LUIS DUNCAN QUINTANILHA           55995   174        222251252RJ21166152871626051570                                                                                 
C107554156000163000141900953749020606197307    00081100440111201225  ANELISE DA SILVA MORAES                 28128   142        924110052RJ20342200275826383170                                                                                 
C107554156000163000151902013650222201198407    00081100440111201225  ANGELICA DOS SANTOS PORTO               78572   161        924110052RJ21107073979026320000                                                                                 
C107554156000163000161265067060813112198109    00098200440511201225  BRUNO SOARES DA SILVA                   12267   129        923241152RJ20553851071926311250                                                                                 
C107554156000163000171198684800520210198109    00700000440111201225  CARLA LICURCI MANHAES                   60759   130        922251252RJ20552176079226265040                                                                                 
C107554156000163000181291016858311810197509    00350000441711201225  CARLOS ALBERTO DANIEL FILHO             81232   145        922251252RJ20712345477420230023                                                                                 
C107554156000163000191255610141713112197409    00350000440811201225  CELIO BARBOSA BELEM                     22025   0014       922251252ES20688754279022790669                                                                                 
C107554156000163000201202012638021012195607    00081100440211201225  CLEONICE PEREIRA DA SILVA PASSOS        44219   394        924110052RJ26337626176826311210                                                                                 
C107554156000163000211303917062622105198509    00250000440811201225  DANIELE DE OLIVEIRA ARAUJO              7930412 0010       922235052RJ21024767973926015350                                                                                 
C107554156000163000221329180056610206198709    00098200440311201225  DAVID SOUSA DA CONCEIÇÃO JUNIOR         14486   153        923241152RJ20587007575026325023                                                                                 
C107554156000163000231242069531520504196207    00081100440211201225  EDINETE SIQUEIRA DA SILVA               13174   090        924110052RJ23377706348726381621                                                                                 
C107554156000163000241287083158910109198107    00081100441211201220  EDUARDO LIMA DE OLIVEIRA                74314   138        924110052RJ20938388479726310360                                                                                 
C107554156000163000251239594863421504196707    00081100440211201225  ELIANE APARECIDA DE OLIVEIRA MOURA      79261   041        924110052RJ29595609374926483200                                                                                 
C107554156000163000261228291786521206197007    00081100440111201225  ELISABETH DA COSTA SILVA                18758   095        924110052RJ29299217076326310170                                                                                 
C107554156000163000271904218722312606198709    00700000440111201220  EMANOEL COELHO DA SILVA                 33680   174        922251252RJ21133106773122041012                                                                                 
C107554156000163000281033085624021103195707    00081100440111201225  ERCI FERREIRA PINTO                     59030   480        924110052RJ26895825070426000000                                                                                 
C107554156000163000291252445419522003197005    00081100440111201225  EVA DA SILVA CORREA                     79737   070        924110052RJ20733280170126382280                                                                                 
C107554156000163000301319120560721405198009    00350000440111201225  FERNANDA PEREIRA BARBOZA                27391   142        922251252RJ20989040577622081025                                                                                 
C107554156000163000311901397104321508196707    00081100440211201225  GLORIA GUIMARAES VICENTE                6809    056        924110052RJ20114812870026315610                                                                                 
C107554156000163000320          10510198509    01050000440111201225  JAEDER OLIVEIRA DOS REIS                79320   174        922251252RJ20257126856220740310                                                                                 
C107554156000163000331904503836922104198809    0070000044101120123122JAMILE GUIMARAES MORAES                 08211   175        922251252RJ21215781571623575000                                                                                 
C107554156000163000341312020060222102197707    00081100440111201225  JAQUELINE MOURA GABRIEL DE SOUZA        85972   111        924110052RJ20544543670526310325                                                                                 
C107554156000163000351513179327420000000009    01050000441611201225  JULIANA SANTOS MAGALHAES                5096748 0030       922251252MG20841788766020756110                                                                                 
C107554156000163000362048427761220606199107    00081100440111201225  JUSSUELLEN SPERENDIO DA COSTA           45060   163        924110052RJ21257569279226310340                                                                                 
C107554156000163000371650366182823001198507    00081100440211201225  LEIVIMARA RAMOS DE SOUSA                04229   141        924110052RJ21132515270626380400                                                                                 
C107554156000163000381239041928512103197409    00450000440111201225  LUIZ CARLOS LEMOS BRITO                 50585   076        924101052RJ20209742879726320270                                                                                 
C107554156000163000391688192126910407198701    00081100440111201225  MARCOS PAULO DA SILVA OLIVEIRA          91974   144        924110052RJ21070404675026383070                                                                                 
C107554156000163000401901895874622011196807    00081100440211201225  MARIA CELIA CORREA DE PAULA NIBBERING   62191   169        924110052RJ20704617870426383550                                                                                 
C107554156000163000411335366956521611195607    00081100440111201225  MARILSA BELO DA COSTA VIEIRA            85448   322        924110052RJ21097130576526383440                                                                                 
C107554156000163000421688186595420802198707    00098200440411201225  MARTCHELLA DE ALMEIDA PARREIRAS FULI    25674   149        923241152RJ21240887078026373390                                                                                 
C107554156000163000431903478206122107197008    00081100440211201225  MONICA DE ARAUJO RODRIGUES              83708   081        924110052RJ20229877672526383020                                                                                 
C107554156000163000441233959434213008195709    00700000441711201225  NELSON MAIA FERNANDES                   24839   027        922251252RJ26287716070022450060                                                                                 
C107554156000163000451218437259711201196507    00098200440211201225  NELSON VITAL QUEIROZ                    59719   095        923241152RJ28422490870026310010                                                                                 
C107554156000163000462060381939121709198109    01050000440111201225  PATRICIA DA SILVA ABRAHAO               12583   141        222251252RJ20895830876126255600                                                                                 
C107554156000163000470          22608198608    00081100440211201225  PATRICIA SOUZA DINIZ                    70394   150        924110052RJ21233586971026327390                                                                                 
C107554156000163000481276040262413008198007    00098200440111201225  PAULO CESAR BARREIRA MARTINS            52130   171        923241152RJ20920198570321220490                                                                                 
C107554156000163000491497495527222508197909    00700000440111201225  PRYSCILLA RODRIGUES WON-HELD            6792025 0030       922251252RJ20869755277026215000                                                                                 
C107554156000163000500          21710196408    0008110044011120122523SANDRA BOECHAT CHAVES                   11897   138        924110052RJ28446136570022725030                                                                                 
C10755415600016300051190138856  21607196107    00081100440111201225  SILVIA HELENA CARDOSO FREITAS           057731  014        924110052RJ20363938672826321140                                                                                 
C107554156000163000522096200517111402198509    01050000440911201225  THANIOS NUNES LACERDA                   69270   173        922251252RJ20761111662220756110                                                                                 
C10755415600016300053131813595470121708198609    00250000440111201225  URSULA LUIZA SILVA BRANDÃO              18011   153        922235052RJ21041329873621540062                                                                                 
C107554156000163000541339333760121408198809    00350000440111201225  VANESSA BARBOSA DO AMARAL               28248   174        922251252RJ20590377574823815340                                                                                 
C107554156000163000551024516236110208194707    00081100440111201225  VICTRUVIO MARCONDES PESSI               46876   645        924110052RS21979379009126310450                                                                                 
C107554156000163000561371323793910612198807    00081100440211201225  VINICIUS JOSE DOS SANTOS                46221   161        924110052RJ21340976277926388030                                                                                 
C107554156000163000571324361358123006198407    00081100442711201225  VIVIANE DA SILVA BARBOSA                13548   136        924110052RJ21062044576926311210                                                                                 
C107554156000163000581901774528512901197812    0070000044010720123123CESAR MATEUS CILENTO GUIMARAES          000771680136       922251252  20810104571626265090                                                                                 
C107554156000163000591217600556420111196209    00700000441607201231300000000000000000000000000000000000000000000157000047       922251252  28549378372026221110                                                                                 
C107554156000163000601299252834112310198012    0105000044100720123121DEILTON DUARTE JUNIOR                   000166840119       922251252  20129573760422795008                                                                                 
C107554156000163000611901800143310703198509    0070000044210920123123GUSTAVO KALIF LIMA                      06153   0045       222251252PA27620282823400000000                                                                                 
C107554156000163000621335671656420305198512    0035000044300720123123HELEN SUZART DE SIQUEIRA                000366640145       922251252  21102125776121931300                                                                                 
C107554156000163000631904503836922104198809    0070000044101120123122JAMILE GUIMARAES MORAES                 08211   175        922251252RJ21215781571623575000                                                                                 
C107554156000163000641293811165911003198509    0105000044150920123123JOAO PAULO MACHADO VIEIRA               5746625 0030       922251252RO28345034322020241060                                                                                 
C107554156000163000651339150256711903196612    0035000044100720123123JOSE MARCELO SOLIZ LOPEZ                                   922251252  20696509776023050200                                                                                 
C107554156000163000661901083038412404197609    0070000044150920123123MARCIO DA SILVA ALVES                   000778860023       822251252AM20720032776025575110                                                                                 
