00109652823000338001                                                                                                                                                                                                                                                                                        
0100809714400LUCIENE GONCALVES PIMENTEL              Rua Francisco Goncalves de Andrade Macha120 Bela Vista A01323050SP00000000000LUCIA MARIA GONCALVES PIMENTEL          126518135850009018248   SP41101002052016251020162101401198240000045760000004576000000457600050100002370                           
0127090130886ADRIANA AMORIM PEREIRA SANTOS           RUA FERNANDO CORTEZ                     406 PARQUE BOTUR03801020SP00000000000ROSALINA AMORIM PEREIRA                 1268167593800079107200  SP22350522072002121020162092310197636000053000000005300000000530000171100035653                           
0137824434893CAMILA RITA DOS SANTOS                  Rua Ararenda                            202 Jardim Texti03413060SP00000000000CLEONICE RITA DOS SANTOS                2078908288200093244325  SP32220501042016201020162071506198940000019786600001978660000197866061100033715                           
9900013                                                                                                                                                                                                                                                                                                     
00109652823001229001                                                                                                                                                                                                                                                                                        
9900016                                                                                                                                                                                                                                                                                                     