00109652823000338001                                                                                                                                                                                                                                                                                        
0126350175816CLAUDIO ALVES FRANCA                    Rua Engenheiro Domicio de L Pacheco e Si288 Vila Campo G04455310SP00000000000ILCA ALVES RIBEIRO FRANCA               124988978030000155800155SP14210524082016211120161103006197540000193194600019319460001931946030100062410                           
9900001                                                                                                                                                                                                                                                                                                     
00109652823001229001                                                                                                                                                                                                                                                                                        
0128318688821MARINA DI CIANNI DA COSTA               Rua Vitor Costa                         513 Bosque da Sa04150060SP00000000000TAIS DI CIANNI COSTA                    135090249300003570200258SP22350510102016231120162101210198040000000000000000000000000522500010100006700                           
0107490099773MAURO DOS SANTOS QUEIROZ JUNIOR         Alameda Barao de Piracicaba ate 354355  447 Campos Elise01216010SP00000000000DIRCE VIEIRA DE SOUZA                   12819344560000788800119 RJ51510517082016081120161070112197540000015917600001591760000159176030100047700                           
0101722105500RODRIGO NUNES PEREIRA                   Rua Gaupo                               04 Jardim Amalia05892400SP00000000000JULIA BRAGA DE SOUZA                    1658577859700026634133  MG51521008082016011120161082406198440000021840000002184000000218400030100040710                           
0130332236803TANIA RIBEIRO CANHADAS                  RUA HEITOR PENTEADO                     250 Sumarezinho 05438000SP00000000000SUELI RIBEIRO CANHADAS                  134502227740005079500211SP41101001102016141120162093103198036000000000000000000000000433775010100026770                           
0130894795830VANESSA GONCALVES DE ALMEIDA            Rua Soldado Benoni Falcao Gouveia       30 Conjunto Habi03977300SP00000000000MARIA DO CARMO SANTOS GONCALVES ALMEIDA 2098018381700080981297  SP51510508082016021120162072303198236000015917600001591760000159176030100025110                           
9900005                                                                                                                                                                                                                                                                                                     