00109652823000338001                                                                                                                                                                                                                                                                                        
0100809714400LUCIENE GONCALVES PIMENTEL              Rua Francisco Goncalves de Andrade Macha120 Bela Vista A01323050SP00000000000LUCIA MARIA GONCALVES PIMENTEL          126518135850009018248   SP41101002052016251020162101401198240000045760000004576000000457600051100002370                           
0127090130886ADRIANA AMORIM PEREIRA SANTOS           RUA FERNANDO CORTEZ                     406 PARQUE BOTUR03801020SP00000000000ROSALINA AMORIM PEREIRA                 1268167593800079107200  SP22350522072002121020162092310197636000053000000005300000000530000171100035653                           
0125452650806BRUNA MARIA PEREIRA LUCAS SILVA         Praca Barao de Itaqui                   733 Vila Gomes C03310020SP00000000000EDNA PEREIRA LUCAS DA SILVA             1286081716800012915317  SP22512520052016101020162090812197724000098966100009896610000989661051100026778                           
0137824434893CAMILA RITA DOS SANTOS                  Rua Ararenda                            202 Jardim Texti03413060SP00000000000CLEONICE RITA DOS SANTOS                2078908288200093244325  SP32220501042016201020162071506198940000019786600001978660000197866061100033715                           
0130007422806CRISTINA ALENCAR GARRIO DE PAULA        RUA JOAO FARES                          92 JD SAO JOAO  08545080SP00000000000VILEUDA LACERDA ALENCAR GARRIO          1367288089100008895224  SP32220501102012121020162071006198236000026375400002637540000263754481100039853                           
0126557307800DANIELA CRISTINA DE PAULA               RUA JOAO ALMEIDA PACHECO                32 JARDIM BRASIL02228050SP00000000000ELISABETE APARECIDA DE PAULA            1273874689800051444180  SP41101019122011031020162070507197740000016579700001657970000165797581100035653                           
0130406058873EVERTON MARTINS VARJAO                  Rua Xiririca                            1166 Vila Carrao03428000SP00000000000ANA MARIA MARTINS VARJAO                1283199985700040956238  SP32220513072016031020161071906198336000019786600001978660000197866030100003190                           
0129536036894FABRICIO PONTES JOANILHO                Rua Recife                              85 Jardim Real  07402850SP00000000000NADIA REGIA AMORIM PONTES               1298859729600071176229  SP32220502052016111020161071707197940000019786600001978660000197866051100024320                           
0137317214817MARCELLA PEDON SCRICHE PINTO            Rua Xiro                                168 Jardim das L02517030SP00000000000ROSANA PEDON SCRICHE PINTO              1369281129100087294371  SP22320805092016191020162092701198940000000000000006617600000661760010100046470                           
0185459240891MARCOS HENRIQUE ZIMBARDI MORALES        AV DOUTOR LAURO LUCHESI                 234 PALMAS DO TR02348050SP00000000000YOLANDA CLARA ZIMBARDI MORALES          121552983840005565855   SP22512508082007041020161091012195712000045632300004563230000456323111100007120                           
0130538067896RODOLFO GOMES DE LIMA                   AV CIRCULAR                             JARDIM ESMERALDA05547025SP00000000000LUIZA GOMES DE LIMA                     1900878934800050445339  SP32220505072010121020161070103198336000026375400002637540000263754751100018139                           
0128637272819THAIS ROSA DE PAULA RESES               Rua Marcondes Homem de Melo             601 Jardim Nossa08275030SP00000000000ELISABETE ROSA DE SANTANA PAULA         1259579793100082142197  SP41010515062016131020162090507197940000078208000007820800000782080040100084500                           
0135323815833WELLINGTON MARTINS DA ROCHA             Rua Banharao                            161 Vila Formosa03366070SP00000000000VERA LUCIA ORIDIO DA ROCHA              2068776194200015458291  SP32220508072016041020161080310198736000019786600001978660000197866030100042307                           
9900013                                                                                                                                                                                                                                                                                                     
00109652823001229001                                                                                                                                                                                                                                                                                        
0143150321824ALINE RODRIGUES LISBOA                  Rua Monsenhor Maximiano Leite           113 Caninde     03034030SP00000000000CARMELITA RODRGUES COELHO               2042867756200061970418  SP41100501072016031020162071905199840000013208000001320800000132080030100071640                           
0139790544898BRUNO XAVIER DOS SANTOS SENA            R DAS BOAS NOITES                       664 VILA REGINA 08225180SP00000000000ZILDA DOURADO XAVIER                    2107190717600049334316  SP32220518112015181020161071105199036000024256800002425680000242568110100001074                           
0135141536807DIOGO COSTA DE OLIVEIRA                 MANOEL RODRIGUES SANTIAGO               91 ITAIM PAULIST08142235SP00000000000LUIZA COSTA DE OLIVEIRA                 1335573881500047749277  SP32220507072014061020161070609198536000023920000002392000000239200270100011920                           
0107344652110EDUARDO PATRICIO CANO HUACHIN           ALAMEDA DOS JURUPIS                     896 Indianopolis04088002SP00000000000MARIA CECILIA HUACHIN MORALES           158064995220035799701   SP22512506082016221020161093011198912000048545000004854500000485450020100002850                           
0122389019811EVERTON APARECIDO BRIZOLA               RUA ERNESTO BOTONI                      13 JD ADELFIORE 05223000SP00000000000SONIA BEATRIZ DE SOUZA BRIZOLA          1900105233100033555193  SP32220520032012111020161090604198136000024256800002425680000242568550100001070                           
0125314184826FRANCISCA LUCIANA DE PAIVA GE           RUA HELENA ZERRENER                     140 LIBERDADE AP01512020SP00000000000EDIRLENE WERNECK DE PAIVA GE            123508516820000025100106MG32220515102012111020162072201197140000029345100002934510000293451480100002350                           
0135079211890GRAZIELA FERREIRA JOAQUIM               RUA VITORIANO DE OLIVEIRA               478 JD MITSUTANI05791280SP00000000000EDILEUSA FERREIRA DOS SANTOS            135724128530000031800325SP41101007062010101020162080712198640000021169100002116910000211691760100018520                           
0104458660632HEINE CASSIANO DOS SANTOS               RUA PASQUALE MONTANI                    15 VL MEDEIROS C02228060SP00000000000NEIRE ABADIA FERREIRA DOS SANTOS        1308273898100097458108  MG22350507042014071020161091207197936000049490000005000000000522500300100032970                           
0108262026756HENRIQUE DE CASTRO CONTREIRAS DE CARVALHDR JULIO OTONI                          294 SANTA TERESA20241400DF00000000000MARIA JOANA DE CASTRO                   1302415958300050270151  RJ22512525012010061020161090106197924000098966100009896610000989661810100080990                           
0133000707832KAREN STEFANE GONCALVES                 Rua Santa Cruz                          25 Cidade Edson 08665470SP00000000000ANA REGINA DA SILVA GONCALVES           1357572381700008110331  SP32220518072016101020162070106198436000023920000002392000000239200030100026770                           
0102849299804LELIA TEIXEIRA DA SILVA                 ALAMEDA SANTOS                          581 CERQUEIRA CE01419000SP00000000000TERESA GUILHERME TEIXEIRA DA SILVA      18018039882000579965    SP41010519092011251020162102303196240000094545500009454550000945455610100001050                           
0117457427864LUCIANE FREITAS DE SOUZA                PRACA FRANCISCO DA GAMA                 62 VILA RUI BARB03734080SP00000000000MARIA HELENA SOUZA FREITAS              124003324030008531400302SP32220520032012071020162092508197236000024256800002425680000242568550100039640                           
0109228215852MARIA CACILDA DA SILVA MIDDEI           RUA ITATIBA                             123 vila metalur09220608SP00000000000EDITH DA SILVA MIDDEI                   122371623540001851552   SP22320814012013171020162091311196436000081780000008178000000817800450100012070                           
0114136759487NORMA SUELY BARBOSA DE VASCONCELOS      AV LINS DE VASCONCELOS                  1455 CAMBUCI APT01537001SP00000000000marly barbosa de vasconcelos            170285215810002381411   PA22517001042011181020162090312195240000156760000015676000001567600660100023850                           
0131153187825SELMA CIRIACO FEITOSA                   Rua Antonio Leme da Guerra              43 Jardim Indaia08141130SP00000000000GERUSA CIRIACO FEITOSA                  1319177681700036425224  SP22350509072016031020162091701198336000050000000005000000000522500030100028740                           
0131973039893TEREZA CRISTINA QUEIROZ DA SILVA        AVENIDA RIO BRANCO                      712 Campos Elise01206000SP00000000000MARIA MADALENA QUEIROZ DA SILVA         135126668910006590000013AL51621001092016101020162070310197840000000000000001591760000159176010100006140                           
9900016                                                                                                                                                                                                                                                                                                     