00109652823000338001                                                                                                                                                                                                                                                                                        
0147745404800ALYNE SOBRINHO CAMPOS                   Rua Ricardo Gumbleton Daunt             242 Jardim Nice 03905110SP00000000000MARIA JANEIDE SOBRINHO CAMPOS           2107243573100097990413  SP41101001052016230920162072701199740000023227800002322780000232278040100074510                           
0120506806863ANA LUCIA SAO FELIPE                    Rua Maria de Lourdes Chaluppe           511 Jardim Rosem06657150SP00000000000APARECIDA VALERIO SAO FELIPE            1248633206700051432183  SP41101007032016230920162093112196940000034411500003441150000344115061100029350                           
0135079103817CAROLINE FERREIRA DA SILVA              Rua Tomas Sandrino                      81 Jardim do Cen04888030SP00000000000CILENE FERREIRA DA SILVA                2107182672900077262328  SP41010516032016050920162091505199140000045760000004576000000731120061100001700                           
0145910975870ERICA PEREIRA LOPES                     Rua Marcos Ferreira da Cruz             167 Jardim Sao J08545210SP00000000000ELIZETE PEREIRA DOS PASSOS              2097906698500010510413  SP41100511042016230920162082001199740000019760000001976000000197600050100002110                           
0131345648820GISLAINE TIUBA DE SOUZA E SILVA         Rua Adamantina                          207 Conjunto Hab06328090SP00000000000MARIA TIUBA DA SILVA                    1348125881900051856271  SP41101004042016230920162090902198540000026395200002639520000263952050100035400                           
0108436508858ROGERIO MANOEL DE CAMPOS                Rua Coronel Bento Pires                 52 Mooca AP 41  03102020SP00000000000ELZA RABELLO DE CAMPOS                  120684648390007046100008SP41010503082016020920161092707196640000000000000000000000000731120010100001410                           
0102284063748ROSE MARY SANTANA SILVA                 Avenida Corifeu de Azevedo Marques de 375680 Vila Lagead05340002SP00000000000AMELIA BATISTA DE SANTANA SILVA         123630662370005418600009BA41010501052016050920162102610197140000136500000013650000001365000040100012211                           
0101511146761SANDRA MAGALHAES PUPO SANTOS            Rua das Camelias ate 399400             29 Mirandopolis 04048060SP00000000000DICLA PUPO SANTOS                       1339744881500012345123  SP25210506062016020920162101005198140000081696400008169640000816964030100001540                           
0131262565898CAMILA BISPO DOS SANTOS                 Rua Batista Caetano                     276 Aclimacao   04108130SP00000000000REGINA FIGUEREDO DOS SANTOS             129686731240005708900280SP22350501072016230920162100812198436000000000000004136000000413600020100038090                           
0104883278573JILMARA LOPES DE ANDRADE                Avenida Gaivota Preta                   181 Jardim Valer07124700SP00000000000GILDACY LOPES SILVA DE ANDRADE          162040547760038976500040BA32220520062016130920162070908198936000014246300001780790000178079030100031500                           
0175155311772JOSE ROBERTO GUEDES NUNES DE SOUZA      Alameda Franca de 386 a 1100 lado par   126 Jardim Pauli01422002SP00000000000MARIA ANGELA GUEDES NUNES DE SOUZA      12231581835005401470050 RJ22512507052016090920161102202196132000045632300012168610001216861040100070564                           
0133709525802JULIANA QUINTANILHA COSTA               Rua Andre Vidal                         85 Tatuape 92C  03065070SP00000000000NILZA APARECIDA QUINTANILHA             1387381385700039493397  SP22512506062016030920162092710198520000091968500009196850000919685030100009059                           
0122459612850LINCONL SANTANA FREIRE                  Rua Cirene de Oliveira Laet             469 Vila Nilo   02279010SP00000000000NEIDE SANTANA FREIRE                    1273636724500041831238  SP22350523042009260920161091310198136000052000000005200000000520000890100031933                           
0128654941871LUCIANA DE JESUS NOGUEIRA               Rua Cassio de Almeida                   001 Vila Guilher02067060SP00000000000JOANA PEREIRA NOGUEIRA                  1295808685400070526241  SP51121001072016020920162091610197940000000000000001092560000109256020100003550                           
0132256946819PAULA REGINA STELMACH VALERIM           Rua Tijuco Preto                        933 Tatuape     03316000SP00000000000MARA ZILDA STELMACH VALERIM             1383772485800083004388  SP22517020062016170920162091805198440000154938200015493820001549382030100037516                           
9900015                                                                                                                                                                                                                                                                                                     
00109652823001229001                                                                                                                                                                                                                                                                                        
0171705244734ANA MARGARITA KRUPA                     Rua Tucuna                              626 Perdizes AP 05021010SP00000000000CECILIA CABALLERO CUBILLO DE KRUPA      1212682675000038130381  SP22512505072016130920162093005195512000000000000004948300000494830020100003400                           
0102883300305ANDRESSA MIRANDA MAGALHAES              Rua Borges de Figueiredo ate 599600     303 Mooca       03110010SP00000000000MIRANDA LOPES MAGALHAES                 1369751907600042994426  SP22512507072016080920162090109198912000000000000004854500000485450020100026770                           
0103942437813ANGELA APARECIDA DA SILVA ARENAS        Rua Manoel Rodrigues da Rocha           347 Parque Santa08150060SP00000000000BENEDITA DE ALMEIDA HIDALGO             1075967000200033885085  SP22350501072016270920162092107196240000000000000004000000000500000020100013110                           
0111127021800AUREA AMELIA CAVIQUIOLI                 RUA CONSELHEIRO RAMALHO                 748 BELA VISTA A01325000AC00000000000                                        1064715525400016783130  SP41101004012011230920162091507195436000000000000002249520000224952680100002510                           
0131443361810CAMILA RODRIGUES PINHEIRO               RUA FRANCISCO ALARICO BERGAMO           332 VILA TAQUARI08230010SP00000000000RAQUEL RODRIGUES PINHEIRO               133162508580002448400280AC32220509112015120920162070703198540000029345100002934510000293451100100018520                           
0193762518815IZILDA APARECIDA VICENTE                RUA MAJOR DIOGO                         666 BELA VISTA A01324000AC00000000000                                        106089340940003245160   SP51510504012011230920162072604195536000000000000001591760000159176680100080990                           
0104643298502JEN UINI MAINAMI CHAGAS TELES           Rua Nepal                               472 Parque Capua09270110SP00000000000IRAILDES DOS SANTOS CHAGAS              20214733372012307850030 BA32220501072016190920162071206199136000000000000002175980000239200020100030140                           
0120389581810LUCIENE DA SILVA OLIVEIRA               Rua Fruta do Conde                      83 Conjunto Habi08485110SP00000000000ROSILDA DA SILVA NASCIMENTO             1642394681800038469148  SP32241501072016160920162071709197440000000000000001788800000223600020100008160                           
0133835836862MARTA OLIVEIRA DA SILVA                 Rua Joao Batista Fernandes              33 Vila Industri03253050SP00000000000EDINEIDE DE SOUZA OLIVEIRA DA SILVA     1324962389900020192258  SP32220501062016200920162071712198440000019136000001913600000239200030100015350                           
0145613595836PABLO HENRIQUE DE SOUSA BAZAN           Rua Mico Leao Dourado                   22 Conjunto Habi08485180SP00000000000MARIA NILZA LIMA DE SOUZA               2041582523100002836413  SP51521001062016190920161072201199540000017472000002271360000227136030100042990                           
0118853981822RICARDO RATTI                           Rua Carlos Weber                        890 Vila Leopold05303000SP00000000000EUNICE RIBEIRO CAMPINAS                 124974819990004427800390SP22512503082016160920161090507197412000000000000000000000000485450010100007320                           
0109659777817SIMONE APARECIDA FERREIRA LOPES         Rua Almirante Marques Leao              549 Bela Vista A01330010SP00000000000ALICE FERREIRA LOPES                    1227983456300065791191  SP32220501062016190920162071210196840000019136000001913600000239200030100000000                           
0135056275859VANESSA CRISTINA ALMEIDA DE SOUSA BESERRRua Agostinho Gomes ate 18291830        485 Ipiranga AP 04206000SP00000000000ESMERALDA DE ALMEIDA SOUSA BESERRA      204860334350002425500431SP22512515082016050920162092711198912000000000000000000000000494830010100032410                           
0113132796840VERA CRISTINA GUERRER                   Rua Doutor Francisco Loureiro           163 Jardim Maria04814150SP00000000000MARIA ROSALIA GUERRER                   1223171654400011388036  SP32220501072016190920162072002196936000000000000002175980000239200020100007720                           
9900014                                                                                                                                                                                                                                                                                                     