00109652823000338001                                                                                                                                                                                                                                                                                        
0100809714400LUCIENE GONCALVES PIMENTEL              Rua Francisco Goncalves de Andrade Macha120 Bela Vista A01323050SP00000000000LUCIA MARIA GONCALVES PIMENTEL          126518135850009018248   SP41101002052016251020162101401198240000045760000004576000000457600050100002370                           
9900001                                                                                                                                                                                                                                                                                                     
00109652823001300001                                                                                                                                                                                                                                                                                        
0127090130886ADRIANA AMORIM PEREIRA SANTOS           RUA FERNANDO CORTEZ                     406 PARQUE BOTUR03801020SP00000000000ROSALINA AMORIM PEREIRA                 1268167593800079107200  SP22350522072002121020162092310197636000053000000005300000000530000171100035653                           
0137824434893CAMILA RITA DOS SANTOS                  Rua Ararenda                            202 Jardim Texti03413060SP00000000000CLEONICE RITA DOS SANTOS                2078908288200093244325  SP32220501042016201020162071506198940000019786600001978660000197866061100033715                           
0130538067896RODOLFO GOMES DE LIMA                   AV CIRCULAR                             JARDIM ESMERALDA05547025SP00000000000LUIZA GOMES DE LIMA                     1900878934800050445339  SP32220505072010121020161070103198336000026375400002637540000263754751100018139                           
9900012                                                                                                                                                                                                                                                                                                     
00109652823001229001                                                                                                                                                                                                                                                                                        
0139790544898BRUNO XAVIER DOS SANTOS SENA            R DAS BOAS NOITES                       664 VILA REGINA 08225180SP00000000000ZILDA DOURADO XAVIER                    2107190717600049334316  SP32220518112015181020161071105199036000024256800002425680000242568110100001074                           
0109228215852MARIA CACILDA DA SILVA MIDDEI           RUA ITATIBA                             123 vila metalur09220608SP00000000000EDITH DA SILVA MIDDEI                   122371623540001851552   SP22320814012013171020162091311196436000081780000008178000000817800450100012070                           
9900016                                                                                                                                                                                                                                                                                                     